{
  "_format": "hh-sol-artifact-1",
  "contractName": "Token",
  "sourceName": "contracts/Token.sol",
  "abi": [
    {
      "inputs": [],
      "stateMutability": "payable",
      "type": "constructor"
    },
    {
      "inputs": [
        {
          "internalType": "string",
          "name": "var1",
          "type": "string"
        }
      ],
      "name": "addEtherToContract",
      "outputs": [],
      "stateMutability": "payable",
      "type": "function"
    },
    {
      "inputs": [
        {
          "internalType": "address",
          "name": "account",
          "type": "address"
        }
      ],
      "name": "getBalance",
      "outputs": [
        {
          "internalType": "uint256",
          "name": "",
          "type": "uint256"
        }
      ],
      "stateMutability": "view",
      "type": "function"
    },
    {
      "inputs": [],
      "name": "getContractBalance",
      "outputs": [
        {
          "internalType": "uint256",
          "name": "",
          "type": "uint256"
        }
      ],
      "stateMutability": "view",
      "type": "function"
    },
    {
      "inputs": [],
      "name": "name",
      "outputs": [
        {
          "internalType": "string",
          "name": "",
          "type": "string"
        }
      ],
      "stateMutability": "view",
      "type": "function"
    },
    {
      "inputs": [],
      "name": "owner",
      "outputs": [
        {
          "internalType": "address",
          "name": "",
          "type": "address"
        }
      ],
      "stateMutability": "view",
      "type": "function"
    },
    {
      "inputs": [],
      "name": "symbol",
      "outputs": [
        {
          "internalType": "string",
          "name": "",
          "type": "string"
        }
      ],
      "stateMutability": "view",
      "type": "function"
    },
    {
      "inputs": [],
      "name": "totalSupply",
      "outputs": [
        {
          "internalType": "uint256",
          "name": "",
          "type": "uint256"
        }
      ],
      "stateMutability": "view",
      "type": "function"
    },
    {
      "inputs": [
        {
          "internalType": "address",
          "name": "to",
          "type": "address"
        }
      ],
      "name": "transfer",
      "outputs": [],
      "stateMutability": "payable",
      "type": "function"
    },
    {
      "stateMutability": "payable",
      "type": "receive"
    }
  ],
  "bytecode": "0x60806040526040518060400160405280600d81526020017f4861726468617420546f6b656e00000000000000000000000000000000000000815250600090816200004a919062000359565b506040518060400160405280600481526020017f48444854000000000000000000000000000000000000000000000000000000008152506001908162000091919062000359565b5061271060025533600360006101000a81548173ffffffffffffffffffffffffffffffffffffffff021916908373ffffffffffffffffffffffffffffffffffffffff16021790555062000440565b600081519050919050565b7f4e487b7100000000000000000000000000000000000000000000000000000000600052604160045260246000fd5b7f4e487b7100000000000000000000000000000000000000000000000000000000600052602260045260246000fd5b600060028204905060018216806200016157607f821691505b60208210810362000177576200017662000119565b5b50919050565b60008190508160005260206000209050919050565b60006020601f8301049050919050565b600082821b905092915050565b600060088302620001e17fffffffffffffffffffffffffffffffffffffffffffffffffffffffffffffffff82620001a2565b620001ed8683620001a2565b95508019841693508086168417925050509392505050565b6000819050919050565b6000819050919050565b60006200023a620002346200022e8462000205565b6200020f565b62000205565b9050919050565b6000819050919050565b620002568362000219565b6200026e620002658262000241565b848454620001af565b825550505050565b600090565b6200028562000276565b620002928184846200024b565b505050565b5b81811015620002ba57620002ae6000826200027b565b60018101905062000298565b5050565b601f8211156200030957620002d3816200017d565b620002de8462000192565b81016020851015620002ee578190505b62000306620002fd8562000192565b83018262000297565b50505b505050565b600082821c905092915050565b60006200032e600019846008026200030e565b1980831691505092915050565b60006200034983836200031b565b9150826002028217905092915050565b6200036482620000df565b67ffffffffffffffff81111562000380576200037f620000ea565b5b6200038c825462000148565b62000399828285620002be565b600060209050601f831160018114620003d15760008415620003bc578287015190505b620003c885826200033b565b86555062000438565b601f198416620003e1866200017d565b60005b828110156200040b57848901518255600182019150602085019450602081019050620003e4565b868310156200042b578489015162000427601f8916826200031b565b8355505b6001600288020188555050505b505050505050565b6108e780620004506000396000f3fe60806040526004361061007f5760003560e01c80638da5cb5b1161004e5780638da5cb5b1461012857806395d89b4114610153578063bd79b9231461017e578063f8b2cb4f1461019a57610086565b806306fdde031461008b57806318160ddd146100b65780631a695230146100e15780636f9fb98a146100fd57610086565b3661008657005b600080fd5b34801561009757600080fd5b506100a06101d7565b6040516100ad91906104dc565b60405180910390f35b3480156100c257600080fd5b506100cb610265565b6040516100d89190610517565b60405180910390f35b6100fb60048036038101906100f691906105a4565b61026b565b005b34801561010957600080fd5b506101126102f8565b60405161011f9190610517565b60405180910390f35b34801561013457600080fd5b5061013d610300565b60405161014a91906105e0565b60405180910390f35b34801561015f57600080fd5b50610168610326565b60405161017591906104dc565b60405180910390f35b61019860048036038101906101939190610730565b6103b4565b005b3480156101a657600080fd5b506101c160048036038101906101bc91906105a4565b610403565b6040516101ce9190610517565b60405180910390f35b600080546101e4906107a8565b80601f0160208091040260200160405190810160405280929190818152602001828054610210906107a8565b801561025d5780601f106102325761010080835404028352916020019161025d565b820191906000526020600020905b81548152906001019060200180831161024057829003601f168201915b505050505081565b60025481565b600134116102ae576040517f08c379a00000000000000000000000000000000000000000000000000000000081526004016102a590610825565b60405180910390fd5b8073ffffffffffffffffffffffffffffffffffffffff166108fc349081150290604051600060405180830381858888f193505050501580156102f4573d6000803e3d6000fd5b5050565b600047905090565b600360009054906101000a900473ffffffffffffffffffffffffffffffffffffffff1681565b60018054610333906107a8565b80601f016020809104026020016040519081016040528092919081815260200182805461035f906107a8565b80156103ac5780601f10610381576101008083540402835291602001916103ac565b820191906000526020600020905b81548152906001019060200180831161038f57829003601f168201915b505050505081565b683635c9adc5dea00000341015610400576040517f08c379a00000000000000000000000000000000000000000000000000000000081526004016103f790610891565b60405180910390fd5b50565b6000600460008373ffffffffffffffffffffffffffffffffffffffff1673ffffffffffffffffffffffffffffffffffffffff168152602001908152602001600020549050919050565b600081519050919050565b600082825260208201905092915050565b60005b8381101561048657808201518184015260208101905061046b565b60008484015250505050565b6000601f19601f8301169050919050565b60006104ae8261044c565b6104b88185610457565b93506104c8818560208601610468565b6104d181610492565b840191505092915050565b600060208201905081810360008301526104f681846104a3565b905092915050565b6000819050919050565b610511816104fe565b82525050565b600060208201905061052c6000830184610508565b92915050565b6000604051905090565b600080fd5b600080fd5b600073ffffffffffffffffffffffffffffffffffffffff82169050919050565b600061057182610546565b9050919050565b61058181610566565b811461058c57600080fd5b50565b60008135905061059e81610578565b92915050565b6000602082840312156105ba576105b961053c565b5b60006105c88482850161058f565b91505092915050565b6105da81610566565b82525050565b60006020820190506105f560008301846105d1565b92915050565b600080fd5b600080fd5b7f4e487b7100000000000000000000000000000000000000000000000000000000600052604160045260246000fd5b61063d82610492565b810181811067ffffffffffffffff8211171561065c5761065b610605565b5b80604052505050565b600061066f610532565b905061067b8282610634565b919050565b600067ffffffffffffffff82111561069b5761069a610605565b5b6106a482610492565b9050602081019050919050565b82818337600083830152505050565b60006106d36106ce84610680565b610665565b9050828152602081018484840111156106ef576106ee610600565b5b6106fa8482856106b1565b509392505050565b600082601f830112610717576107166105fb565b5b81356107278482602086016106c0565b91505092915050565b6000602082840312156107465761074561053c565b5b600082013567ffffffffffffffff81111561076457610763610541565b5b61077084828501610702565b91505092915050565b7f4e487b7100000000000000000000000000000000000000000000000000000000600052602260045260246000fd5b600060028204905060018216806107c057607f821691505b6020821081036107d3576107d2610779565b5b50919050565b7f41746c65617374203120457468657220746f207472616e736665720000000000600082015250565b600061080f601b83610457565b915061081a826107d9565b602082019050919050565b6000602082019050818103600083015261083e81610802565b9050919050565b7f41746c6561737420313030204574686572730000000000000000000000000000600082015250565b600061087b601283610457565b915061088682610845565b602082019050919050565b600060208201905081810360008301526108aa8161086e565b905091905056fea2646970667358221220e35c750257cd3143f60c81258837443f25a48a00d09b8329dac83106355f76bd64736f6c63430008120033",
  "linkReferences": {},
  "deployedLinkReferences": {}
}